:100000000C9434000C9446000C9446000C9446006A
:100010000C9446000C9446000C9446000C94460048
:100020000C9446000C9446000C9446000C94460038
:100030000C9446000C9446000C9446000C94460028
:100040000C9446000C9446000C9446000C94460018
:100050000C9446000C9446000C9446000C94460008
:100060000C9446000C94460011241FBECFEFD8E03C
:10007000DEBFCDBF13E0A0E0B1E001C01D92A7300C
:10008000B107E1F70E94FB010C941A0B0C940000DD
:10009000DF93CF930F92CDB7DEB7A4E2B0E0E4E2F6
:1000A000F0E0808180638C93A5E2B0E0E5E2F0E0CF
:1000B00080818C93A7E2B0E0E7E2F0E080818C934E
:1000C000A8E2B0E0E8E2F0E080818C93AAE2B0E040
:1000D000EAE2F0E080818C93ABE2B0E0EBE2F0E0AA
:1000E00080818C93A8EAB0E0E8EAF0E080818C930C
:1000F000A9EAB0E0E9EAF0E080818C930F90CF911B
:10010000DF910895DF93CF93CDB7DEB7E0ECF0E059
:100110001082E2ECF0E086E08083E1ECF0E088E140
:100120008083E5ECF0E01082E4ECF0E08CE080838A
:10013000CF91DF910895DF93CF930F92CDB7DEB7C4
:100140008983E0ECF0E08081882F90E080729070ED
:100150000097B9F3E6ECF0E0898180830F90CF91AE
:10016000DF910895DF93CF93CDB7DEB7E0ECF0E0F9
:1001700080818823DCF7E6ECF0E08081CF91DF918D
:100180000895DF93CF9300D000D0CDB7DEB79C8326
:100190008B838B819C819A8389830BC0E981FA814F
:1001A000208189819A8101969A838983822F0E9476
:1001B0009B00E981FA818081882381F70F900F905D
:1001C0000F900F90CF91DF910895DF93CF9300D0E0
:1001D00000D000D0CDB7DEB79E838D838D819E8108
:1001E000929582958F7089279F708927CC01A0E016
:1001F000B0E0880F991FAA1FBB1F880F991FAA1F65
:10020000BB1F9A8389831C821B8205C08B819C81C2
:1002100001969C838B832B813C8189819A8128174D
:100220003907A0F326960FB6F894DEBF0FBECDBFF8
:10023000CF91DF910895DF93CF9300D000D0CDB759
:10024000DEB79C838B838B819C819A83898388EE24
:1002500093E00E94E50089819A8101979A838983BE
:1002600089819A81009799F70F900F900F900F90C6
:10027000CF91DF910895DF93CF93CDB7DEB7EFE550
:10028000F0E0808180930001F894CF91DF91089590
:10029000DF93CF93CDB7DEB7EFE5F0E080910001BB
:1002A0008083CF91DF910895DF93CF93CDB7DEB7F1
:1002B000A2E6B0E0E2E6F0E08081806E8C93A2E6F8
:1002C000B0E0E2E6F0E080818F7B8C93CF91DF910C
:1002D0000895DF93CF93CDB7DEB7CF91DF91089527
:1002E000DF93CF9300D0CDB7DEB78A83E2EFF0E0A3
:1002F00080818F70898399818A81892B8983898103
:100300000E94A0010F900F90CF91DF910895DF938D
:10031000CF9300D0CDB7DEB78A83E2EFF0E08081E3
:100320008F7089838A81982F909589818923898309
:1003300089810E94A0010F900F90CF91DF910895C5
:10034000DF93CF9300D0CDB7DEB78A834091F20020
:1003500040774068842B8093F2008093F2008A817A
:1003600089830F900F90CF91DF910895DF93CF9302
:1003700000D0CDB7DEB78A834091F2004F7140685C
:10038000880F880F880F880F880F842B8093F200C6
:100390008093F2008A8189830F900F90CF91DF9133
:1003A0000895DF93CF9300D0CDB7DEB78A83409115
:1003B000610040764068842B8093610080936100E7
:1003C0008A8189830F900F90CF91DF910895DF93F9
:1003D000CF93CDB7DEB7CF91DF910895DF93CF9361
:1003E000CDB7DEB70E9448000E9482000E946901DA
:1003F000CF91DF910895EF92FF920F931F93DF93B8
:10040000CF9300D0CDB7DEB71A8219820E94EE01D9
:100410000E94EF03109204030E94B2008093030332
:1004200080910303823879F40E94B2008093010125
:100430000E94B200809302010E94A90581E091E030
:100440000E94D305C9C1809103038438B9F40E9486
:10045000B200809301010E94B200809302010E94C9
:10046000A90580910101482F50E080910201282FB9
:1004700030E0CA01B9010E94FA0AAEC180910303BB
:100480008439A9F40E94B200809303030E94B20051
:100490000E94A90580910303882F90E00E94D70A4B
:1004A00080930303809103030E949B0095C1809178
:1004B00003038535E1F40E94B200882F90E0909309
:1004C0000603809305030E94B200882F90E0982FC6
:1004D00088279C018091050390910603822B932B22
:1004E00090930603809305030E94A90575C180912E
:1004F0000303843609F057C00E94B200882F90E0B1
:100500009A8389830E94B200882F90E0982F8827D1
:100510009C0189819A81822B932B9A8389831A82E9
:1005200019822FC009811A810E94B200282F30E061
:10053000C801880F991FFC01ED5FFE4F31832083B6
:10054000E980FA8089819A81880F991FFC01ED5F0B
:10055000FE4F008111810E94B200882F90E0982FF9
:1005600088279801282B392BC701880F991FFC0178
:10057000ED5FFE4F3183208389819A8101969A83B2
:10058000898389819A818F3F910561F258F20E9497
:10059000A905809105039091060323E031E0B9019C
:1005A0000E94130A19C180910303843709F05DC0CA
:1005B0000E94B200882F90E09A8389830E94B20043
:1005C000882F90E0982F88279C0189819A81822B1F
:1005D000932B9A8389831A8219822FC009811A81E9
:1005E0000E94B200282F30E0C801880F991FFC013B
:1005F000ED5FFE4F31832083E980FA8089819A8103
:10060000880F991FFC01ED5FFE4F008111810E9450
:10061000B200882F90E0982F88279801282B392B3B
:10062000C701880F991FFC01ED5FFE4F31832083C6
:1006300089819A8101969A83898389819A818F3FE2
:10064000910561F258F20E94A905809105039091ED
:10065000060323E031E0B9010E94D7098093030328
:10066000809103030E949B00B7C0809103038537EC
:1006700091F40E94A905809105039091060323E05F
:1006800031E0B9010E94D7098093030380910303ED
:100690000E949B00A1C080910303823639F50E941D
:1006A000B200809303030E94B200882F90E09A83E7
:1006B00089830E94B200882F90E0982F88279C01A0
:1006C00089819A81822B932B9A8389830E94A90521
:1006D0000E94C40680910303882F90E029813A810B
:1006E000B9010E94560A0E94DD0676C0809103037C
:1006F000823769F50E94B200809303030E94B20022
:10070000882F90E09A8389830E94B200882F90E01E
:10071000982F88279C0189819A81822B932B9A8319
:1007200089830E94A9050E94C40680910303882F33
:1007300090E029813A81B9010E94720A80930303F3
:100740000E94DD06809103030E949B0045C08091BA
:100750000303803A09F040C00E94B2008093030373
:100760000E94A90580910303813141F4A5E2B0E024
:10077000E5E2F0E08081877F8C932EC080910303B7
:10078000882341F4A5E2B0E0E5E2F0E080818860F2
:100790008C9322C080910303823219F40E940D0BC6
:1007A0001BC080910303833319F40E94050714C012
:1007B00080910303843419F40E948C060DC080914B
:1007C0000303853519F40E940D0B06C080910303C5
:1007D0008F3F11F40E9461060E94C9051BCEDF9372
:1007E000CF93CDB7DEB7A4E2B0E0E4E2F0E08081E1
:1007F00088638C93A5E2B0E0E5E2F0E080818F7E33
:100800008C93A5E2B0E0E5E2F0E080818F7D8C93EF
:10081000A5E2B0E0E5E2F0E08081877F8C93CF91A4
:10082000DF910895DF93CF9300D000D0CDB7DEB72E
:100830008A836B834C838A81813009F02DC0A5E2C5
:10084000B0E0E5E2F0E080818F7E8C930000000054
:10085000000000000000000000000000A5E2B0E081
:10086000E5E2F0E080818F7D8C93000000000000C5
:1008700000000000000000000000A5E2B0E0E5E29A
:10088000F0E0808180618C93000000000000000097
:10089000000000000000000019823AC0A5E2B0E0AC
:1008A000E5E2F0E080818F7E8C938B81882F90E051
:1008B00081709070882341F0A5E2B0E0E5E2F0E0BD
:1008C000808180628C9307C0A5E2B0E0E5E2F0E0B1
:1008D00080818F7D8C9300000000000000000000EC
:1008E0000000000000008B8186958B83A5E2B0E0BC
:1008F000E5E2F0E0808180618C9300000000000060
:100900000000000000000000000089818F5F8983E3
:100910008981883008F4C2CFA5E2B0E0E5E2F0E0DA
:1009200080818F7E8C938C81813041F4A5E2B0E090
:10093000E5E2F0E0808180628C9307C0A5E2B0E040
:10094000E5E2F0E080818F7D8C93000000000000E4
:1009500000000000000000000000A5E2B0E0E5E2B9
:10096000F0E0808180618C930000000000000000B6
:1009700000000000000000000F900F900F900F90FB
:10098000CF91DF910895DF93CF9300D000D0CDB702
:10099000DEB78B836C831A828B81813029F5A5E2C7
:1009A000B0E0E5E2F0E080818F7E8C93A5E2B0E0DC
:1009B000E5E2F0E080818F7D8C9300000000000074
:1009C00000000000000000000000A5E2B0E0E5E249
:1009D000F0E0808180618C93000000000000000046
:1009E0000000000000000000A4E2B0E0E4E2F0E05B
:1009F00080818F7D8C93198230C08A8186958A830D
:100A0000A5E2B0E0E5E2F0E080818F7E8C9300000B
:100A10000000000000000000000000000000E3E211
:100A2000F0E08081882F90E080729070009719F03C
:100A30008A8180688A83A5E2B0E0E5E2F0E0808107
:100A400080618C93000000000000000000000000A6
:100A50000000000089818F5F89838981883008F4D4
:100A6000CCCFA4E2B0E0E4E2F0E0808180628C933D
:100A7000A5E2B0E0E5E2F0E080818F7E8C938C818E
:100A8000882341F4A5E2B0E0E5E2F0E080818F7DCB
:100A90008C9307C0A5E2B0E0E5E2F0E080818062DF
:100AA0008C93000000000000000000000000000027
:100AB0000000A5E2B0E0E5E2F0E0808180618C9387
:100AC0000000000000000000000000000000000026
:100AD0008A810F900F900F900F90CF91DF91089522
:100AE000DF93CF9300D0CDB7DEB78A83A5E2B0E025
:100AF000E5E2F0E0808180628C93198221C0A5E25A
:100B0000B0E0E5E2F0E080818F7E8C930000000091
:100B1000000000000000000000000000A5E2B0E0BE
:100B2000E5E2F0E0808180618C930000000000002D
:100B30000000000000000000000089818F5F8983B1
:100B400099818A819817D8F20F900F90CF91DF91F9
:100B50000895DF93CF9300D00F92CDB7DEB71982FF
:100B60000E94B2008A838A81803231F089818F5F4E
:100B7000898389818823A1F71B828A81803211F4BD
:100B800081E08B838B810F900F900F90CF91DF913D
:100B90000895DF93CF93CDB7DEB784E10E949B0029
:100BA000CF91DF910895DF93CF9300D0CDB7DEB71B
:100BB0009A83898381E067EB40E00E941204E98117
:100BC000FA81908180E0692F40E00E9412048981BF
:100BD0009A81FC013196908180E0692F41E00E946A
:100BE000120484E00E9470050F900F90CF91DF9166
:100BF0000895DF93CF9300D0CDB7DEB719821A8264
:100C0000CE0101960E94D3050F900F90CF91DF91F6
:100C10000895DF93CF9300D00F92CDB7DEB79B83BB
:100C20008A83198281E064EB40E00E941204EA8129
:100C3000FB81908180E0692F40E00E9412048A814C
:100C40009B81FC013196908180E0692F41E00E94F8
:100C5000120484E00E9470058A819B81FC01319618
:100C60008081882F90E0807990708039910599F487
:100C700081E06CEA41E00E94120484E00E94700569
:100C800081E061E00E94C304898384E00E947005D2
:100C900089810E949B000F900F900F90CF91DF9160
:100CA0000895DF93CF9300D0CDB7DEB719821A82B3
:100CB000CE0101960E9409060F900F90CF91DF910F
:100CC0000895DF93CF93CDB7DEB784E60E94700519
:100CD00081E060E041E00E94120481E060ED40E0CC
:100CE0000E94120480E06AEA40E00E94120480E060
:100CF00065E540E00E94120480E06AEA40E00E945C
:100D0000120480E065E541E00E94120484E00E9444
:100D10007005CF91DF910895DF93CF9300D000D07D
:100D2000CDB7DEB781E06EEA41E00E94120484E0B4
:100D30000E94700581E060E00E94C304898380E026
:100D400060E00E94C3048A8380E060E00E94C304E4
:100D50008B8380E061E00E94C3048C8384E00E9466
:100D6000700589810E949B008A810E949B008B8173
:100D70000E949B008C810E949B000F900F900F900F
:100D80000F90CF91DF910895DF93CF93CDB7DEB76A
:100D900081E060EF40E00E94120480E065EF40E0F7
:100DA0000E94120480E060EA41E00E94120488E0A0
:100DB0000E947005CF91DF910895DF93CF93CDB757
:100DC000DEB781E060EF40E00E94120480E060E066
:100DD00040E00E94120480E060E041E00E941204C2
:100DE00088E00E947005CF91DF910895DF93CF9343
:100DF000CDB7DEB781E060E341E00E94120484E0F9
:100E00000E947005CF91DF910895DF93CF93CDB706
:100E1000DEB781E061E341E00E94120484E00E94B9
:100E20007005CF91DF910895DF93CF93CDB7DEB7F3
:100E300081E060EF40E00E94120480E063E240E065
:100E40000E94120480E060E540E00E94120480E00D
:100E500069E440E00E94120480E06DE241E00E94FB
:100E6000120484E00E947005CF91DF910895DF9312
:100E7000CF9300D000D00F92CDB7DEB78B837D83A8
:100E80006C838C818A838B81282F220F220F8C8187
:100E90009D81892F99278370822B898381E062EB62
:100EA00040E00E94120480E06A8140E00E94120447
:100EB00080E0698141E00E94120488E00E94700590
:100EC0000F900F900F900F900F90CF91DF9108959A
:100ED000DF93CF9300D000D00F92CDB7DEB78B83D6
:100EE0007D836C838C818A838B81282F2795222791
:100EF00027958C819D81892F99278F73822B8983D8
:100F000081E063EB40E00E94120480E06A8140E0EF
:100F10000E94120480E0698141E00E94120488E08E
:100F20000E9470050F900F900F900F900F90CF912F
:100F3000DF910895DF93CF93CDB7DEB780E160E016
:100F400070E00E943707A5E2B0E0E5E2F0E08081C2
:100F500088608C938AE090E00E941B01CF91DF9122
:100F60000895DF93CF93CDB7DEB7A5E2B0E0E5E219
:100F7000F0E08081877F8C9384E190E00E941B01E8
:100F800080E060E070E00E943707CF91DF91089524
:100F9000DF93CF9300D000D00F92CDB7DEB7898317
:100FA0007B836A835D834C832C813D8180E0B90122
:100FB0000E94680780E160E070E00E94370782E1EC
:100FC00060E070E00E943707898182612A813B815D
:100FD000B9010E943707898186612A813B81B90165
:100FE0000E94370700000000000000000000000021
:100FF00000000000000000000000000000000000F1
:1010000000000000000000000000000000000000E0
:1010100000000000000000000000000000000000D0
:1010200000000000000000000000000000000000C0
:1012B00000000000898182612A813B81B9010E947E
:1012C0003707898180612A813B81B9010E943707F4
:1012D000000000000000000000000000000000000E
:1012E00000000000000000000000000000000000FE
:1012F00000000000000000000000000000000000EE
:1013000000000000000000000000000000000000DD
:1013100000000000000000000000000000000000CD
:101320000F900F900F900F900F90CF91DF91089535
:10133000DF93CF9300D0CDB7DEB781E06BEA41E019
:101340000E94120484E00E94700581E060E00E9427
:10135000C3048A8380E061E00E94C304898384E03F
:101360000E9470058981982F9E7F8A818170892BC8
:101370000F900F90CF91DF910895DF93CF9300D01E
:101380000F92CDB7DEB789837B836A8381E060E00B
:1013900070E00E9468072A813B818981B9010E941F
:1013A00037070F900F900F90CF91DF910895DF9343
:1013B000CF9300D000D000D0CDB7DEB79C838B8315
:1013C0007E836D831A8219822B813C8180E0B90172
:1013D0000E94BD091A82198215C089819A819C01D7
:1013E000220F331F8D819E81FC01E20FF31F2081AC
:1013F000318181E0B9010E94680789819A81019653
:101400009A83898389819A818F3F910531F328F3EB
:101410000E94980926960FB6F894DEBF0FBECDBF86
:10142000CF91DF910895DF93CF93CDB7DEB72797A4
:101430000FB6F894DEBF0FBECDBF9C838B837E8337
:101440006D831A8219820E949A071A8219821DC01E
:101450002B813C8189819A81A901480F591F89817B
:101460009A819C01220F331F8D819E81FC01E20F26
:10147000F31F2081318180E0BA01A9010E94C807D1
:1014800089819A8101969A83898389819A818F3F84
:101490009105F1F2E8F20E94B10727960FB6F89491
:1014A000DEBF0FBECDBFCF91DF910895DF93CF9305
:1014B00000D00F92CDB7DEB789837B836A830E9409
:1014C0009A078981282F30E04A815B8181E0B90148
:1014D0000E94C8070E94B1070F900F900F90CF9104
:1014E000DF910895DF93CF9300D00F92CDB7DEB791
:1014F00089837B836A838981282F30E081E0B90169
:101500000E94BD092A813B8181E0B9010E946807E0
:101510000E9498090F900F900F90CF91DF9108953E
:10152000DF93CF9300D000D0CDB7DEB78A836B8333
:101530008A81882319F080EA8C8302C080E98C8339
:101540008C81898381E064EB40E00E94120480E09A
:101550006B8140E00E94120480E0698141E00E94BA
:10156000120488E00E9470050F900F900F900F906A
:10157000CF91DF910895DF93CF930F92CDB7DEB770
:10158000898381E064EB40E00E94120480E069817D
:1015900040E00E94120480E060EC41E00E941204EE
:1015A00088E00E9470050F90CF91DF910895DF933E
:1015B000CF9300D0CDB7DEB78A8380E06A810E94E6
:1015C000900A84E00E94700581E06CEA41E00E948C
:1015D000120484E00E94700581E061E00E94C3046F
:1015E000898384E00E94700589810F900F90CF91CC
:1015F000DF910895DF93CF9300D0CDB7DEB7898315
:101600006A838A810E94BB0A81E069810E94900AF4
:101610000F900F90CF91DF910895DF93CF93CDB7C7
:10162000DEB70E9405070E9414070E946106CF9151
:08163000DF910895F894FFCF4B
:00000001FF
